:020000040800F2
:10000000E80A0020290200083504000881030008DE
:1000100031040008E3020008450800080000000061
:100020000000000000000000000000006D06000855
:10003000E70200080000000049060008D907000890
:10004000430200084302000843020008430200087C
:10005000430200084302000843020008430200086C
:10006000430200084302000843020008430200085C
:10007000430200084302000843020008430200084C
:10008000430200084302000843020008430200083C
:10009000430200084302000843020008430200082C
:1000A000430200084302000843020008430200081C
:1000B000430200084302000843020008430200080C
:1000C00043020008430200084302000843020008FC
:1000D00043020008430200084302000843020008EC
:1000E00043020008430200084302000843020008DC
:1000F00043020008430200084302000843020008CC
:1001000043020008430200084302000843020008BB
:1001100043020008430200084302000843020008AB
:10012000430200084302000843020008430200089B
:10013000430200084302000843020008430200088B
:10014000430200084302000843020008430200087B
:10015000430200084302000843020008430200086B
:10016000430200084302000843020008430200085B
:10017000430200084302000843020008430200084B
:10018000430200084302000800F002F800F03CF8C7
:100190000AA090E8000C82448344AAF10107DA45E2
:1001A00001D100F031F8AFF2090EBAE80F0013F0F8
:1001B000010F18BFFB1A43F0010318476407000042
:1001C00084070000103A24BF78C878C1FAD85207D3
:1001D00024BF30C830C144BF04680C6070470000C1
:1001E0000023002400250026103A28BF78C1FBD840
:1001F000520728BF30C148BF0B6070471FB500F0E1
:100200008AFB1FBD10B510BD00F031F81146FFF795
:10021000F5FF00F079FB00F04FF803B4FFF7F2FFB1
:1002200003BC00F057F80000094880470948004720
:10023000FEE7FEE7FEE7FEE7FEE7FEE7FEE7FEE796
:10024000FEE7FEE704480549054A064B70470000F3
:10025000DD07000889010008E8040020E80A002002
:10026000E8060020E8060020704770477047754692
:1002700000F02CF8AE4605006946534620F0070012
:10028000854618B020B5FFF7DDFFBDE820404FF0F0
:1002900000064FF000074FF000084FF0000B21F070
:1002A0000701AC46ACE8C009ACE8C009ACE8C0093D
:1002B000ACE8C0098D46704710B50446AFF3008026
:1002C0002046BDE81040FFF7A8BF00000048704777
:1002D0008404002001491820ABBEFEE7260002007E
:1002E000704700BFFEE77047F0B50A4600210023C3
:1002F000002400BF3DE0012505FA01F3156805EA79
:1003000003049C4234D105684F000326BE40B54328
:10031000056015794E00B5400668354305601579CE
:10032000012D02D01579022D16D185684F000326C4
:10033000BE40B543856055794E00B540866835436B
:100340008560456801268E40B543456045689679CD
:100350008E40B6B235434560C5684F000326BE40A7
:10036000B543C560D5794E00B540C6683543C56014
:10037000491C1029BFD3F0BD4183704701837047EA
:1003800000BFFEE710B520210B48FFF7F7FF4FF441
:1003900080510A48FFF7F2FF00F042F8202106489A
:1003A000FFF7EAFF00F03CF84FF480510348FFF7F5
:1003B000E3FF00F035F810BD000C024000180240C9
:1003C00010B520210748FFF7D7FF4FF480510648AA
:1003D000FFF7D4FF00F024F820210248FFF7CEFFFA
:1003E00010BD0000000C02400018024010B5202192
:1003F0000948FFF7C3FF00F013F84FF48051074896
:10040000FFF7BCFF00F00CF84FF480510348FFF7F2
:10041000B3FF00F005F810BD000C024000180240C8
:100420000A2000BF011EA0F10102D0B2FAD170472C
:1004300000BFFEE77047000070B500240CE0002507
:1004400006E00020074901EBC5010855681CC5B24C
:10045000802DF6DB601CC4B2082CF0DB00F0A4F8A1
:1004600070BD0000040000201CB50121482000F0F0
:10047000EDF82020009001208DF804008DF8060092
:1004800003208DF8050001208DF8070069464448D7
:10049000FFF72AFF1020009000208DF80600694623
:1004A0003F48FFF721FF4FF48050009001208DF866
:1004B00004008DF8060003208DF8050001208DF85A
:1004C000070069463748FFF70FFF10213448FFF750
:1004D00053FFC82000F0D6F910213148FFF74EFF36
:1004E0000021AE2000F094F80021FD2000F090F8EB
:1004F0000021122000F08CF80021D52000F088F8AF
:100500000021A02000F084F80021A82000F080F84D
:1005100000213F2000F07CF80021D32000F078F883
:100520000021084600F074F80021402000F070F827
:100530000021A12000F06CF80021C82000F068F82C
:100540000021DA2000F064F80021122000F060F8A9
:100550000021812000F05CF80021BF2000F058F855
:100560000021D92000F054F80021252000F050F897
:100570000021DB2000F04CF80021342000F048F886
:100580000021A42000F044F80021A62000F040F84B
:10059000FFF752FF0021AF2000F03AF81CBD000029
:1005A000000C02400018024070B500242BE004F15A
:1005B000B001C8B2002100F02BF80021084600F07D
:1005C00027F80021102000F023F8FFF7DBFE782049
:1005D00000F04EF8FFF70AFF402000F049F8FFF75F
:1005E00005FF002509E0094901EBC501085D00F0A0
:1005F0003FF8FFF7FBFE681CC5B2802DF3DBFFF769
:10060000DFFE601CC4B2082CD1DB70BD04000020EA
:1006100070B505460C46FFF7B5FE782000F028F8C7
:10062000FFF7E4FE1CB1402000F022F802E00020B9
:1006300000F01EF8FFF7DAFE284600F019F8FFF781
:10064000D5FEFFF7BDFE70BD7047000029B1064A18
:1006500012680243044B1A6004E0034A12688243A2
:10066000014B1A60704700003038024070470000AC
:1006700070B5044600251DE004F0800020B1202163
:100680000E48FFF77BFE03E020210C48FFF774FEC5
:10069000FFF7C6FE4FF480510948FFF76FFEFFF7E2
:1006A000BFFE4FF480510648FFF766FE6006040E59
:1006B000681CC5B2082DDFDB70BD0000000C0240D5
:1006C000001802400CB500200190009034480068EA
:1006D00040F480303249086000BF3148006800F4BF
:1006E000003000900198401C0190009818B90198C2
:1006F000B0F5A04FF1D12A48006800F4003010B1E5
:100700000120009001E0002000900098012846D1CF
:1007100023484030006840F0805021494031086053
:100720002048006840F440401E4908601C480830DA
:1007300000681B49083108600846006840F4004022
:1007400008600846006840F4A05008601648091F79
:100750000860081F006840F08070091F086000BF33
:100760000F48006800F000700028F9D040F20570D2
:100770000E4908600A480830006820F00300084964
:10078000083108600846006840F00200086000BFB9
:1007900003480830006800F00C000828F8D10CBDB0
:1007A0000038024000700040085A4007003C0240F8
:1007B000042808D14FF0E021096941F004014FF00D
:1007C000E022116107E04FF0E021096921F0040106
:1007D0004FF0E022116170477047000010B51548D6
:1007E000006840F47000134908601348006840F046
:1007F00001001149086000200F49083108600E48C7
:1008000000680E4908400C4908600D48091D086041
:10081000081F006820F48020091F08600020064996
:100820000C310860FFF74EFF4FF00060014980393E
:10083000086010BD88ED00E000380240FFFFF6FEC2
:100840001030002400BFFEE710B504466FF004002E
:10085000FFF7AEFFE11704EB5171C1F3C701074A7F
:1008600011701046007800EB4001C1EBC0104FF64C
:10087000FF7101EAC0000249088010BD000000209D
:100880000200002070B504464FF4077094FBF0F0AE
:10089000C6B24FF4077094FBF0F100FB114085B233
:1008A00005E04FF4077000F009F8701EC6B2002E84
:1008B000F7D115B1284600F001F870BD0146114A84
:1008C00012884A434FF0E0235A6100229A611A4687
:1008D000126942F001021A6100BF4FF0E022106974
:1008E00000F001021AB100F48032002AF5D04FF076
:1008F000E022126922F001024FF0E0231A61002287
:100900009A61704702000020A820FFF79DFFFFF7C3
:10091000ABFD00BFFEE74FF04070E1EE100A7047FC
:10092000400900080000002004000000C401000885
:100930004409000804000020E40A0000E001000867
:0409400000000000B3
:040000050800018965
:00000001FF
